S01700004763634170706C69636174696F6E342E7372656358
S11300000C9453000C9467000C9488000C946500C5
S11300100C9465000C9465000C9465000C946500C8
S11300200C9465000C9465000C9465000C946500B8
S11300300C9465000C9465000C9465000C946500A8
S11300400C9465000C9465000C9465000C94650098
S11300500C946500B300CD00CD00CD00CD00B600FA
S1130060CD00CD00CD00CD00B900CD00CD00CD0038
S1130070CD00BC00CD00CD00CD00CD00BF00CD0033
S1130080CD00CD00CD00C200CD00CD00CD00CD000F
S1130090C500CD00CD00CD00CD00C800CD00CD0001
S11300A0CD00CD00CB0011241FBECFE5D8E0DEBFCC
S11300B0CDBF20E0A0E6B0E001C01D92AA36B20791
S11300C0E1F70E947C010C94B2040C9400001F928E
S11300D00F920FB60F9211248F9382B3806482BB68
S11300E081E08093650082B38D7F82BB85B38E7F70
S11300F085BB85B38D7F85BB85B38B7F85BB8AB775
S11301008F7B8ABF8F910F900FBE0F901F90189511
S11301101F920F920FB60F9211248F9382B38068AF
S113012082BB81E08093600082B38D7F82BB85B304
S11301308E7F85BB85B38D7F85BB85B38B7F85BB68
S11301408AB78F7B8ABF8F910F900FBE0F901F903D
S1130150189590E0FC01B397E932F105F0F4E65DFF
S1130160FF4F0C94980485E38BBB089580E48BBB0C
S1130170089585E48BBB089580E58BBB089585E5E0
S11301808BBB089580E68BBB089585E68BBB0895F1
S113019080E78BBB089585E78BBB0895909903C0D6
S11301A082B3816082BB8CE30E94A9008CE390E05F
S11301B090936900809368000895909B03C082B374
S11301C08E7F82BB1ABA82B38D7F82BB85B38E7F4A
S11301D085BB85B38D7F85BB85B38B7F85BB089538
S11301E08DEF8ABB87E886B980E487B90895877064
S11301F0806487B986B1806486B9349BFECF86B1AA
S1130200806186B98FE99FE00197F1F700C0000093
S113021084B195B1089581E00E94F700BC01990F63
S1130220880B990B0E94620326EF38E24CE950E4F4
S11302300E94170420E030E040E251E40E94B8023A
S1130240089585B3826085BB85B3816085BB0895BD
S113025085B3846085BBAA9B0FC085B3816085BBD1
S11302602FEF80E792E0215080409040E1F700C0FA
S1130270000085B38E7F85BB08958FE085BF8FEF27
S11302808BBF089580916800909169009C0123526E
S113029031092832310528F405969093690080933A
S11302A06800809168000E94A9002FEF80E792E027
S11302B0215080409040E1F700C0000008958091F3
S11302C06800909169009C0124523109283231055B
S11302D028F40597909369008093680080916800E2
S11302E00E94A9002FEF80E792E0215080409040C7
S11302F0E1F700C000000895CF93DF93CDB7DEB7D8
S113030064970FB6F894DEBF0FBECDBF1ABA17BA02
S113031083EF81BB8FEF84BB12BA109265001092F9
S113032060000E943D017894B0990E94CE00B39978
S11303300E94DD00909BF8CF0E94F000F12C1BC0BE
S11303400F2D10E081E00E94F7000E940B01000FC6
S1130350111F21E030E02C0F3D1F020F131F0E94DC
S11303602A03F801718360838FE19EE40197F1F71A
S113037000C00000F39499E09F1510F729813A8199
S11303808B819C81820F931F2D813E81820F931F4D
S11303902F813885820F931F29853A85820F931FF9
S11303A02B853C85820F931F2D853E85820F931FDD
S11303B02F853889820F931F29893A89820F931FC9
S11303C02B893C89820F931F6AE070E00E948404A9
S11303D0072E000C880B990B0E9462036B017C01B1
S11303E06093610070936200809363009093640053
S11303F06091680070916900072E000C880B990BBE
S11304000E9462034B015C019B01AC01C701B60170
S11304100E94B302882334F482B3826082BB0E94B8
S1130420280122C0A5019401C701B6010E9412044B
S1130430181634F482B38D7F82BB0E94210114C04C
S1130440A5019401C701B6010E94B30281110CC039
S113045085B38D7F85BB85B38B7F85BB82B38D7F51
S113046082BB85B38E7F85BB80916500813029F086
S113047080916000813009F05EC0EFE1FEE43197C5
S1130480F1F700C00000109267001092660082B37A
S11304908D7F82BB85B38E7F85BB85B38D7F85BB06
S11304A085B38B7F85BB12BE85E083BF3CC0809142
S11304B06800909169000E94A900B39B09C00E9442
S11304C0DD0084E690E0909367008093660033C07B
S11304D082B78F3F51F48091660090916700019636
S11304E0909367008093660012BE1ABA8DEF8ABBA0
S11304F08091660090916700843691054CF4829B4C
S113050007C010926700109266000E9442010BC05F
S11305108436910544F4839B06C0109267001092C0
S113052066000E945F0180916600909167008436A6
S113053091050CF4BCCF80916600909167008436DD
S1130540910509F0F1CE13BE82B38F7B82BB10926A
S1130550600010926500109267001092660082B3EA
S11305608F7782BBE1CE0E949D0308F481E0089559
S11305700E94CC020C94D8030E94D10358F00E942C
S1130580CA0340F029F45F3F29F00C94C1035111D0
S11305900C940C040C94C7030E94E90368F3992398
S11305A0B1F3552391F3951B550BBB27AA2762176B
S11305B07307840738F09F5F5F4F220F331F441F78
S11305C0AA1FA9F335D00E2E3AF0E0E832D09150AC
S11305D05040E695001CCAF72BD0FE2F29D0660F99
S11305E0771F881FBB1F261737074807AB07B0E8DC
S11305F009F0BB0B802DBF01FF2793585F4F3AF0E2
S11306009E3F510578F00C94C1030C940C045F3F99
S1130610E4F3983ED4F3869577956795B795F79567
S11306209F5FC9F7880F911D9695879597F908954F
S1130630E1E0660F771F881FBB1F621773078407EB
S1130640BA0720F0621B730B840BBA0BEE1F88F7FA
S1130650E09508950E9431036894B1110C940C0440
S113066008950E94F10388F09F5798F0B92F9927B5
S1130670B751B0F0E1F0660F771F881F991F1AF089
S1130680BA95C9F714C0B13091F00E940B04B1E0DF
S113069008950C940B04672F782F8827B85F39F0DE
S11306A0B93FCCF3869577956795B395D9F73EF422
S11306B090958095709561957F4F8F4F9F4F0895CA
S11306C0E89409C097FB3EF49095809570956195E8
S11306D07F4F8F4F9F4F9923A9F0F92F96E9BB279E
S11306E09395F695879577956795B795F111F8CF1A
S11306F0FAF4BB0F11F460FF1BC06F5F7F4F8F4F85
S11307009F4F16C0882311F096E911C0772321F07A
S11307109EE8872F762F05C0662371F096E8862F12
S113072070E060E02AF09A95660F771F881FDAF769
S1130730880F9695879597F90895990F0008550F96
S1130740AA0BE0E8FEEF16161706E807F907C0F053
S113075012161306E407F50798F0621B730B840B5B
S1130760950B39F40A2661F0232B242B252B21F435
S113077008950A2609F4A140A6958FEF811D811DD5
S1130780089597F99F6780E870E060E008959FEF0F
S113079080EC089500240A94161617061806090614
S11307A0089500240A9412161306140605060895E3
S11307B0092E0394000C11F4882352F0BB0F40F46B
S11307C0BF2B11F460FF04C06F5F7F4F8F4F9F4FAB
S11307D0089557FD9058440F551F59F05F3F71F02D
S11307E04795880F97FB991F61F09F3F79F0879594
S11307F00895121613061406551FF2CF4695F1DF1D
S113080008C0161617061806991FF1CF86957105AC
S1130810610508940895E894BB2766277727CB01E0
S113082097F908950E949D0308F48FEF08950E949C
S11308302A040C94D8030E94CA0338F00E94D103FE
S113084020F0952311F00C94C1030C94C7031124D8
S11308500C940C040E94E90370F3959FC1F3950F67
S113086050E0551F629FF001729FBB27F00DB11D30
S1130870639FAA27F00DB11DAA1F649F6627B00DC0
S1130880A11D661F829F2227B00DA11D621F739FA9
S1130890B00DA11D621F839FA00D611D221F749FB7
S11308A03327A00D611D231F849F600D211D822FFE
S11308B0762F6A2F11249F5750409AF0F1F0882325
S11308C04AF0EE0FFF1FBB1F661F771F881F915052
S11308D05040A9F79E3F510580F00C94C1030C943D
S11308E00C045F3FE4F3983ED4F3869577956795BF
S11308F0B795F795E7959F5FC1F7FE2B880F911D7C
S11309009695879597F9089597FB072E16F400940A
S113091007D077FD09D00E949E0407FC05D03EF461
S1130920909581959F4F0895709561957F4F089597
S1130930EE0FFF1F0590F491E02D0994AA1BBB1B39
S113094051E107C0AA1FBB1FA617B70710F0A61BCB
S1130950B70B881F991F5A95A9F780959095BC01EC
S10B0960CD010895F894FFCFC6
S9030000FC
